{
  "contractName": "ExpertVote",
  "abi": [
    {
      "constant": true,
      "inputs": [
        {
          "name": "i",
          "type": "uint256"
        }
      ],
      "name": "getVotedWorker",
      "outputs": [
        {
          "name": "",
          "type": "address"
        }
      ],
      "payable": false,
      "stateMutability": "view",
      "type": "function"
    },
    {
      "constant": true,
      "inputs": [],
      "name": "getVotedWorkersCount",
      "outputs": [
        {
          "name": "",
          "type": "uint256"
        }
      ],
      "payable": false,
      "stateMutability": "view",
      "type": "function"
    },
    {
      "constant": true,
      "inputs": [
        {
          "name": "workerAddress",
          "type": "address"
        }
      ],
      "name": "countPositiveVotes",
      "outputs": [
        {
          "name": "",
          "type": "uint256"
        }
      ],
      "payable": false,
      "stateMutability": "view",
      "type": "function"
    },
    {
      "constant": true,
      "inputs": [
        {
          "name": "",
          "type": "uint256"
        }
      ],
      "name": "votes",
      "outputs": [
        {
          "name": "expert",
          "type": "address"
        },
        {
          "name": "worker",
          "type": "address"
        },
        {
          "name": "decision",
          "type": "bool"
        }
      ],
      "payable": false,
      "stateMutability": "view",
      "type": "function"
    },
    {
      "constant": true,
      "inputs": [
        {
          "name": "",
          "type": "uint256"
        }
      ],
      "name": "votedWorkers",
      "outputs": [
        {
          "name": "",
          "type": "address"
        }
      ],
      "payable": false,
      "stateMutability": "view",
      "type": "function"
    },
    {
      "constant": false,
      "inputs": [
        {
          "name": "workerAddress",
          "type": "address"
        },
        {
          "name": "decision",
          "type": "bool"
        }
      ],
      "name": "doVote",
      "outputs": [],
      "payable": false,
      "stateMutability": "nonpayable",
      "type": "function"
    },
    {
      "constant": true,
      "inputs": [
        {
          "name": "",
          "type": "address"
        }
      ],
      "name": "votesLog",
      "outputs": [
        {
          "name": "",
          "type": "address"
        }
      ],
      "payable": false,
      "stateMutability": "view",
      "type": "function"
    },
    {
      "inputs": [
        {
          "name": "expertListAddress",
          "type": "address"
        }
      ],
      "payable": false,
      "stateMutability": "nonpayable",
      "type": "constructor"
    }
  ],
  "bytecode": "0x6060604052341561000f57600080fd5b604051602080610afc83398101604052808051906020019091905050806000806101000a81548173ffffffffffffffffffffffffffffffffffffffff021916908373ffffffffffffffffffffffffffffffffffffffff16021790555050610a818061007b6000396000f300606060405260043610610083576000357c0100000000000000000000000000000000000000000000000000000000900463ffffffff1680630c34b7501461008857806317bfa579146100eb5780632c83c8ab146101145780635df81330146101615780636da61b3c14610202578063836273f114610265578063d00ef320146102a9575b600080fd5b341561009357600080fd5b6100a96004808035906020019091905050610322565b604051808273ffffffffffffffffffffffffffffffffffffffff1673ffffffffffffffffffffffffffffffffffffffff16815260200191505060405180910390f35b34156100f657600080fd5b6100fe610366565b6040518082815260200191505060405180910390f35b341561011f57600080fd5b61014b600480803573ffffffffffffffffffffffffffffffffffffffff16906020019091905050610373565b6040518082815260200191505060405180910390f35b341561016c57600080fd5b610182600480803590602001909190505061045e565b604051808473ffffffffffffffffffffffffffffffffffffffff1673ffffffffffffffffffffffffffffffffffffffff1681526020018373ffffffffffffffffffffffffffffffffffffffff1673ffffffffffffffffffffffffffffffffffffffff16815260200182151515158152602001935050505060405180910390f35b341561020d57600080fd5b61022360048080359060200190919050506104e4565b604051808273ffffffffffffffffffffffffffffffffffffffff1673ffffffffffffffffffffffffffffffffffffffff16815260200191505060405180910390f35b341561027057600080fd5b6102a7600480803573ffffffffffffffffffffffffffffffffffffffff169060200190919080351515906020019091905050610523565b005b34156102b457600080fd5b6102e0600480803573ffffffffffffffffffffffffffffffffffffffff169060200190919050506108ce565b604051808273ffffffffffffffffffffffffffffffffffffffff1673ffffffffffffffffffffffffffffffffffffffff16815260200191505060405180910390f35b600060028281548110151561033357fe5b906000526020600020900160009054906101000a900473ffffffffffffffffffffffffffffffffffffffff169050919050565b6000600280549050905090565b6000806000809150600090505b600180549050811015610454578373ffffffffffffffffffffffffffffffffffffffff166001828154811015156103b357fe5b906000526020600020906002020160010160009054906101000a900473ffffffffffffffffffffffffffffffffffffffff1673ffffffffffffffffffffffffffffffffffffffff1614801561043957506001151560018281548110151561041657fe5b906000526020600020906002020160010160149054906101000a900460ff161515145b156104475781806001019250505b8080600101915050610380565b8192505050919050565b60018181548110151561046d57fe5b90600052602060002090600202016000915090508060000160009054906101000a900473ffffffffffffffffffffffffffffffffffffffff16908060010160009054906101000a900473ffffffffffffffffffffffffffffffffffffffff16908060010160149054906101000a900460ff16905083565b6002818154811015156104f357fe5b90600052602060002090016000915054906101000a900473ffffffffffffffffffffffffffffffffffffffff1681565b61052b610901565b6000809054906101000a900473ffffffffffffffffffffffffffffffffffffffff1673ffffffffffffffffffffffffffffffffffffffff166376c535ae336000604051602001526040518263ffffffff167c0100000000000000000000000000000000000000000000000000000000028152600401808273ffffffffffffffffffffffffffffffffffffffff1673ffffffffffffffffffffffffffffffffffffffff168152602001915050602060405180830381600087803b15156105ef57600080fd5b6102c65a03f1151561060057600080fd5b50505060405180519050151561061557600080fd5b8273ffffffffffffffffffffffffffffffffffffffff16600360003373ffffffffffffffffffffffffffffffffffffffff1673ffffffffffffffffffffffffffffffffffffffff16815260200190815260200160002060009054906101000a900473ffffffffffffffffffffffffffffffffffffffff1673ffffffffffffffffffffffffffffffffffffffff16141515156106af57600080fd5b6060604051908101604052803373ffffffffffffffffffffffffffffffffffffffff1681526020018473ffffffffffffffffffffffffffffffffffffffff16815260200183151581525090506001805480600101828161070f9190610951565b9160005260206000209060020201600083909190915060008201518160000160006101000a81548173ffffffffffffffffffffffffffffffffffffffff021916908373ffffffffffffffffffffffffffffffffffffffff16021790555060208201518160010160006101000a81548173ffffffffffffffffffffffffffffffffffffffff021916908373ffffffffffffffffffffffffffffffffffffffff16021790555060408201518160010160146101000a81548160ff02191690831515021790555050505082600360003373ffffffffffffffffffffffffffffffffffffffff1673ffffffffffffffffffffffffffffffffffffffff16815260200190815260200160002060006101000a81548173ffffffffffffffffffffffffffffffffffffffff021916908373ffffffffffffffffffffffffffffffffffffffff160217905550600261085f84610373565b14156108c957600280548060010182816108799190610983565b9160005260206000209001600085909190916101000a81548173ffffffffffffffffffffffffffffffffffffffff021916908373ffffffffffffffffffffffffffffffffffffffff160217905550505b505050565b60036020528060005260406000206000915054906101000a900473ffffffffffffffffffffffffffffffffffffffff1681565b606060405190810160405280600073ffffffffffffffffffffffffffffffffffffffff168152602001600073ffffffffffffffffffffffffffffffffffffffff1681526020016000151581525090565b81548183558181151161097e5760020281600202836000526020600020918201910161097d91906109af565b5b505050565b8154818355818115116109aa578183600052602060002091820191016109a99190610a30565b5b505050565b610a2d91905b80821115610a2957600080820160006101000a81549073ffffffffffffffffffffffffffffffffffffffff02191690556001820160006101000a81549073ffffffffffffffffffffffffffffffffffffffff02191690556001820160146101000a81549060ff0219169055506002016109b5565b5090565b90565b610a5291905b80821115610a4e576000816000905550600101610a36565b5090565b905600a165627a7a72305820e82b0608f74676e7aa7eaf1ef7b98b89d8d881e1b19c6705689613b1251a34cc0029",
  "source": "pragma solidity ^0.4.18;\r\n\r\nimport \"./owned.sol\";\r\n\r\ninterface ExpertListInterface {\r\n    function isExpert(address expertAddress) public view returns(bool);\r\n}\r\n\r\ncontract ExpertVote {\r\n    \r\n    ExpertListInterface expertList;\r\n    \r\n    struct VoteStruct {\r\n        address expert;\r\n        address worker;\r\n        bool decision;\r\n    }\r\n    \r\n    VoteStruct[] public votes;\r\n    address[] public votedWorkers;\r\n    mapping (address => address) public votesLog;\r\n    \r\n    modifier isExpert() {\r\n        require(expertList.isExpert(msg.sender));\r\n        _;\r\n    }\r\n    \r\n    function ExpertVote(address expertListAddress) public {\r\n        expertList = ExpertListInterface(expertListAddress);\r\n    }\r\n    \r\n    function doVote(address workerAddress, bool decision) public isExpert {\r\n        require(votesLog[msg.sender] != workerAddress);\r\n        \r\n        var voteStruct = VoteStruct({expert: msg.sender, worker: workerAddress, decision: decision});\r\n        votes.push(voteStruct);\r\n        \r\n        votesLog[msg.sender] = workerAddress;\r\n        \r\n        if(countPositiveVotes(workerAddress) == 2) {\r\n            votedWorkers.push(workerAddress);\r\n        }\r\n    }\r\n    \r\n    function countPositiveVotes(address workerAddress) public view returns(uint) {\r\n        uint count = 0;\r\n        for(uint i = 0; i < votes.length; i++ ){\r\n            if((votes[i].worker == workerAddress) && (votes[i].decision == true)){\r\n                count++;\r\n            }\r\n        }\r\n        return count;\r\n    }\r\n    \r\n    function getVotedWorkersCount() public view returns(uint){\r\n        return votedWorkers.length;\r\n    }\r\n    \r\n    function getVotedWorker(uint i) public view returns(address){\r\n        return votedWorkers[i];\r\n    }\r\n}\r\n",
  "sourcePath": "d:\\OpenServer\\domains\\hakaton\\truffle\\contracts\\ExpertVote.sol",
  "compiler": {
    "name": "solc",
    "version": "0.4.18+commit.9cf6e910.Emscripten.clang"
  },
  "schemaVersion": "1.0.1",
  "updatedAt": "2018-01-21T18:09:46.860Z"
}