{
  "contractName": "ExpertList",
  "abi": [
    {
      "constant": true,
      "inputs": [],
      "name": "getExpertsCount",
      "outputs": [
        {
          "name": "",
          "type": "uint256"
        }
      ],
      "payable": false,
      "stateMutability": "view",
      "type": "function"
    },
    {
      "constant": false,
      "inputs": [
        {
          "name": "expertAddress",
          "type": "address"
        }
      ],
      "name": "removeExpert",
      "outputs": [],
      "payable": false,
      "stateMutability": "nonpayable",
      "type": "function"
    },
    {
      "constant": false,
      "inputs": [
        {
          "name": "expertAddress",
          "type": "address"
        }
      ],
      "name": "addExpert",
      "outputs": [],
      "payable": false,
      "stateMutability": "nonpayable",
      "type": "function"
    },
    {
      "constant": true,
      "inputs": [
        {
          "name": "expertAddress",
          "type": "address"
        }
      ],
      "name": "isExpert",
      "outputs": [
        {
          "name": "",
          "type": "bool"
        }
      ],
      "payable": false,
      "stateMutability": "view",
      "type": "function"
    },
    {
      "constant": true,
      "inputs": [],
      "name": "owner",
      "outputs": [
        {
          "name": "",
          "type": "address"
        }
      ],
      "payable": false,
      "stateMutability": "view",
      "type": "function"
    },
    {
      "constant": true,
      "inputs": [
        {
          "name": "",
          "type": "uint256"
        }
      ],
      "name": "experts",
      "outputs": [
        {
          "name": "",
          "type": "address"
        }
      ],
      "payable": false,
      "stateMutability": "view",
      "type": "function"
    },
    {
      "constant": true,
      "inputs": [
        {
          "name": "i",
          "type": "uint256"
        }
      ],
      "name": "getExpert",
      "outputs": [
        {
          "name": "",
          "type": "address"
        }
      ],
      "payable": false,
      "stateMutability": "view",
      "type": "function"
    },
    {
      "constant": false,
      "inputs": [
        {
          "name": "newOwner",
          "type": "address"
        }
      ],
      "name": "transferOwnership",
      "outputs": [],
      "payable": false,
      "stateMutability": "nonpayable",
      "type": "function"
    },
    {
      "inputs": [],
      "payable": false,
      "stateMutability": "nonpayable",
      "type": "constructor"
    }
  ],
  "bytecode": "0x6060604052341561000f57600080fd5b336000806101000a81548173ffffffffffffffffffffffffffffffffffffffff021916908373ffffffffffffffffffffffffffffffffffffffff16021790555061081a8061005e6000396000f30060606040526004361061008e576000357c0100000000000000000000000000000000000000000000000000000000900463ffffffff16806328224d8b146100935780632f59a5ce146100bc5780634fcaee77146100f557806376c535ae1461012e5780638da5cb5b1461017f578063b7425f4c146101d4578063d79dbe3c14610237578063f2fde38b1461029a575b600080fd5b341561009e57600080fd5b6100a66102d3565b6040518082815260200191505060405180910390f35b34156100c757600080fd5b6100f3600480803573ffffffffffffffffffffffffffffffffffffffff169060200190919050506102e0565b005b341561010057600080fd5b61012c600480803573ffffffffffffffffffffffffffffffffffffffff169060200190919050506104c6565b005b341561013957600080fd5b610165600480803573ffffffffffffffffffffffffffffffffffffffff16906020019091905050610587565b604051808215151515815260200191505060405180910390f35b341561018a57600080fd5b61019261062b565b604051808273ffffffffffffffffffffffffffffffffffffffff1673ffffffffffffffffffffffffffffffffffffffff16815260200191505060405180910390f35b34156101df57600080fd5b6101f56004808035906020019091905050610650565b604051808273ffffffffffffffffffffffffffffffffffffffff1673ffffffffffffffffffffffffffffffffffffffff16815260200191505060405180910390f35b341561024257600080fd5b610258600480803590602001909190505061068f565b604051808273ffffffffffffffffffffffffffffffffffffffff1673ffffffffffffffffffffffffffffffffffffffff16815260200191505060405180910390f35b34156102a557600080fd5b6102d1600480803573ffffffffffffffffffffffffffffffffffffffff169060200190919050506106d3565b005b6000600180549050905090565b60008060009054906101000a900473ffffffffffffffffffffffffffffffffffffffff1673ffffffffffffffffffffffffffffffffffffffff163373ffffffffffffffffffffffffffffffffffffffff1614151561033d57600080fd5b600090505b6001805490508110156104c1578173ffffffffffffffffffffffffffffffffffffffff1660018281548110151561037557fe5b906000526020600020900160009054906101000a900473ffffffffffffffffffffffffffffffffffffffff1673ffffffffffffffffffffffffffffffffffffffff1614156104b4576001808080549050038154811015156103d257fe5b906000526020600020900160009054906101000a900473ffffffffffffffffffffffffffffffffffffffff1660018281548110151561040d57fe5b906000526020600020900160006101000a81548173ffffffffffffffffffffffffffffffffffffffff021916908373ffffffffffffffffffffffffffffffffffffffff16021790555060018080805490500381548110151561046b57fe5b906000526020600020900160006101000a81549073ffffffffffffffffffffffffffffffffffffffff021916905560018054809190600190036104ae9190610771565b506104c2565b8080600101915050610342565b5b5050565b6000809054906101000a900473ffffffffffffffffffffffffffffffffffffffff1673ffffffffffffffffffffffffffffffffffffffff163373ffffffffffffffffffffffffffffffffffffffff1614151561052157600080fd5b60018054806001018281610535919061079d565b9160005260206000209001600083909190916101000a81548173ffffffffffffffffffffffffffffffffffffffff021916908373ffffffffffffffffffffffffffffffffffffffff1602179055505050565b600080600090505b600180549050811015610620578273ffffffffffffffffffffffffffffffffffffffff166001828154811015156105c257fe5b906000526020600020900160009054906101000a900473ffffffffffffffffffffffffffffffffffffffff1673ffffffffffffffffffffffffffffffffffffffff1614156106135760019150610625565b808060010191505061058f565b600091505b50919050565b6000809054906101000a900473ffffffffffffffffffffffffffffffffffffffff1681565b60018181548110151561065f57fe5b90600052602060002090016000915054906101000a900473ffffffffffffffffffffffffffffffffffffffff1681565b60006001828154811015156106a057fe5b906000526020600020900160009054906101000a900473ffffffffffffffffffffffffffffffffffffffff169050919050565b6000809054906101000a900473ffffffffffffffffffffffffffffffffffffffff1673ffffffffffffffffffffffffffffffffffffffff163373ffffffffffffffffffffffffffffffffffffffff1614151561072e57600080fd5b806000806101000a81548173ffffffffffffffffffffffffffffffffffffffff021916908373ffffffffffffffffffffffffffffffffffffffff16021790555050565b8154818355818115116107985781836000526020600020918201910161079791906107c9565b5b505050565b8154818355818115116107c4578183600052602060002091820191016107c391906107c9565b5b505050565b6107eb91905b808211156107e75760008160009055506001016107cf565b5090565b905600a165627a7a723058202fe6fc8f922f24bbc1d483a7c44fa851e6af7c226a1eed049be678f231eaff2e0029",
  "source": "pragma solidity ^0.4.18;\r\n\r\nimport \"./owned.sol\";\r\n\r\ncontract ExpertList is owned {\r\n    \r\n    address[] public experts;\r\n\r\n    function ExpertList() public {\r\n\r\n    }\r\n    \r\n    function isExpert(address expertAddress) public view returns(bool){\r\n        //return true;\r\n        for(uint i = 0; i < experts.length; i++){\r\n             if(experts[i] == expertAddress) return true;\r\n        }\r\n        return false;\r\n        //return experts[expertAddress];\r\n    }\r\n    \r\n    function addExpert(address expertAddress) public onlyOwner {\r\n        experts.push(expertAddress);\r\n    }\r\n    \r\n    function removeExpert(address expertAddress) public onlyOwner {\r\n        for(uint i = 0; i < experts.length; i++){\r\n            if(experts[i] == expertAddress){\r\n        \r\n                experts[i] = experts[experts.length - 1];\r\n                delete experts[experts.length - 1];\r\n                experts.length--;\r\n        \r\n                return;\r\n            }\r\n        }\r\n        //experts[expertAddress] = false;\r\n    }\r\n    \r\n    function getExpertsCount() public view returns(uint){\r\n        return experts.length;\r\n    }\r\n    \r\n    function getExpert(uint i) public view returns(address){\r\n        return experts[i];\r\n    }\r\n\r\n}\r\n",
  "sourcePath": "d:\\OpenServer\\domains\\hakaton\\truffle\\contracts\\ExpertList.sol",
  "compiler": {
    "name": "solc",
    "version": "0.4.18+commit.9cf6e910.Emscripten.clang"
  },
  "schemaVersion": "1.0.1",
  "updatedAt": "2018-01-21T19:16:00.507Z"
}